:1000000019C033C032C031C030C02FC02EC02DC087
:100010002CC02BC02AC029C028C027C026C025C09C
:1000200024C023C055C021C020C01FC01EC01DC099
:100030001CC01BC011241FBECFEFD4E0DEBFCDBF5C
:1000400011E0A0E0B1E0EEE0F1E002C005900D9219
:10005000A030B107D9F711E0A0E0B1E001C01D92D6
:10006000A030B107E1F748D050C0CACF8AB1886646
:100070008AB984B5806A84BD84B5816084BD85B544
:10008000826085BDE0EBF0E08081806280838081CA
:1000900081608083E1EBF0E080818260808308955D
:1000A000E1ECF0E0808188618083A2ECB0E08C918B
:1000B00086608C93A0ECB0E08C9182608C9310925F
:1000C000C50088E08093C4008081806880830895A3
:1000D0001F920F920FB60F9211248F93EF93FF93FD
:1000E000E6ECF0E080818083FF91EF918F910F909B
:1000F0000FBE0F901F901895B9DFD2DF789481E082
:0E01000087BD18BC8093B400FFCFF894FFCFEA
:00000001FF
