:1000000019C033C032C031C030C02FC02EC02DC087
:100010002CC02BC02AC029C028C027C026C025C09C
:1000200024C023C022C021C020C01FC01EC01DC0CC
:100030001CC01BC011241FBECFEFD4E0DEBFCDBF5C
:1000400011E0A0E0B1E0ECE9F0E002C005900D9213
:10005000A030B107D9F711E0A0E0B1E001C01D92D6
:10006000A030B107E1F702D017C0CACF80E28AB949
:1000700080E090E20AC02FEF3DEE42E02150304098
:100080004040E1F700C000008F5F8A30A4F38BB1DD
:0C00900089278BB980E0EFCFF894FFCFF8
:00000001FF
