:1000000019C033C032C031C030C02FC02EC02DC087
:100010002CC02BC02AC029C028C027C026C025C09C
:1000200024C023C022C021C020C01FC01EC01DC0CC
:100030001CC01BC011241FBECFEFD4E0DEBFCDBF5C
:1000400011E0A0E0B1E0E2EBF0E002C005900D921B
:10005000A030B107D9F711E0A0E0B1E001C01D92D6
:10006000A030B107E1F71CD022C0CACF8AB18866A0
:100070008AB984B5806A84BD84B5816084BD85B544
:10008000826085BDE0EBF0E08081806280838081CA
:1000900081608083E1EBF0E080818260808308955D
:1000A000E5DF81E087BD18BC8093B400FFCFF894F2
:0200B000FFCF80
:00000001FF
